S01500004669727374204C4544204C61622E73726563E3
S11300000C942A000C943F000C943F000C943F0085
S11300100C943F000C943F000C943F000C943F0060
S11300200C943F000C943F000C943F000C943F0050
S11300300C943F000C943F000C943F000C943F0040
S11300400C943F000C943F000C943F000C943F0030
S11300500C943F0011241FBECFE5D8E0DEBFCDBF16
S113006010E0A0E6B0E0E4E7FAE002C005900D92EB
S1130070A63CB107D9F70E943E010C9438050C94B4
S11300800000CF930E94E0030E944D02C82F10C0CD
S11300900E94E4032FEF83ED90E3215080409040D1
S11300A0E1F700C000000E944D02811101C0C1E0CF
S11300B0CC2371F3CF910895FF920F931F93CF93A5
S11300C0DF93F82E062F142F92C063E080E00E9485
S11300D0A3038CEA90E00E942C038AE30E94CE02E0
S11300E080EB90E00E942C038AE30E94CE0283EB13
S11300F090E00E942C0364E081E00E94A303C7E621
S11301002F2D2C02D12D1124D595D595F7FCD395FF
S11301106D2F0D2E000C770B880B990B0E943F035B
S1130120DD0F8D2F880F880FD80F6F2D6D1B062EB6
S1130130000C770B880B990B0E943F038AE30E9403
S1130140CE020C02D12D1124D595D59507FDD3955A
S11301506D2F0D2E000C770B880B990B0E943F031B
S1130160DD0F8D2F880F880FD80F602F6D1B062E83
S1130170000C770B880B990B0E943F038AE30E94C3
S1130180CE021C02C12D1124C595C59517FDC3953A
S11301906C2F0C2E000C770B880B990B0E943F03DD
S11301A0CC0F8C2F880F880FC80F612F6C1B062E65
S11301B0000C770B880B990B0E943F038FEF99ED8E
S11301C02FE2815090402040E1F700C000000E94DF
S11301D041000E94E8030E94BB03115011230CF05C
S11301E074CF0150145C0023CCF7FA94045CFF2014
S11301F0D4F7C0E03BC00E94520263E080E00E945A
S1130200A30387EB90E00E942C0367E081E00E9447
S1130210A3038CEB90E00E942C038FEF91EE24E07B
S1130220815090402040E1F700C000000E94560237
S11302300E94BB0363E081E00E94A30387EB90E08C
S11302400E942C0367E080E00E94A3038CEB90E003
S11302500E942C038FEF91EE24E0815090402040C7
S1130260E1F700C000000E94BB03CF5FCE3118F25B
S1130270DF91CF911F910F91FF9008950E94730415
S11302800E94BF030E94B8020E94E0030E942F0252
S11302900E9438020E9441020E94490265E080E007
S11302A00E94A30388E60E94CE022FEF89E698E11C
S11302B0215080409040E1F700C0000081E60E9498
S11302C0CE022FEF89E698E1215080409040E1F77B
S11302D000C000008CE60E94CE022FEF89E698E170
S11302E0215080409040E1F700C000008CE60E945D
S11302F0CE022FEF89E698E1215080409040E1F74B
S113030000C000008FE60E94CE022FEF81E19AE741
S1130310215080409040E1F700C000000E94BB03E0
S1130320F12C10E000E095C00F5F0E943C028111A7
S113033006C01F5F1C33C8F00F5F10E016C00E9498
S11303404502811107C0F3942BE32F1570F41F5F4E
S1130350F12C0BC00E944D02811107C04F2D612F5B
S1130360802F0E945C00F12C10E063E080E00E948A
S1130370A3038CEA90E00E942C038AE30E94CE023D
S113038083EC90E00E942C038AE30E94CE0283EB6C
S113039090E00E942C0364E081E00E94A303CDEC72
S11303A00C9FD12D1124D695D695D6956D2F70E03E
S11303B080E090E00E943F03DD0F8D2F880F880FAF
S11303C0D80F602F6D1B70E080E090E00E943F0327
S11303D08AE30E94CE021C9FD12D1124D695D69576
S11303E0D6956D2F70E080E090E00E943F03DD0F12
S11303F08D2F880F880FD80F612F6D1B70E080E060
S113040090E00E943F038AE30E94CE02FC9EC12D2D
S11304101124C695C695C6956C2F70E080E090E0D7
S11304200E943F03CC0F8C2F880F880FC80F6F2DAD
S11304306C1B70E080E090E00E943F038FEF92E538
S113044027E0815090402040E1F700C000000E9466
S1130450BB030E943302882309F466CF66CF81B3BD
S11304608B7F81BB089580B382FB882780F9089530
S113047081B3877F81BB089580B383FB882780F98C
S1130480089581B38F7E81BB089580B38295817076
S1130490089581B38F7D81BB089580B385FB882740
S11304A080F9089585B3806285BB089585B38F7DF7
S11304B085BB0895CF93C82F60E081E00E94EC03D0
S11304C060E082E00E94EC03C4FB662760F983E0ED
S11304D00E94EC03C5FB662760F984E00E94EC03EC
S11304E0C6FB662760F985E00E94EC036C2F661F4B
S11304F06627661F86E00E94EC0361E082E00E94AA
S1130500EC038FE99FE00197F1F700C0000060E081
S113051082E00E94EC036C2F617083E00E94EC0384
S1130520C1FB662760F984E00E94EC03C2FB6627E6
S113053060F985E00E94EC03C3FB662760F986E05E
S11305400E94EC0361E082E00E94EC038FE99FE0EB
S11305500197F1F700C0000060E082E00E94EC0324
S11305608FE19EE40197F1F700C00000CF91089558
S113057083E30E945A0282E30E945A0288E20E94A4
S11305805A028CE00E945A0281E00E945A0286E0DC
S11305900E945A0282E00E945A020895CF93C82F03
S11305A061E081E00E94EC0360E082E00E94EC03E1
S11305B0C4FB662760F983E00E94EC03C5FB662751
S11305C060F984E00E94EC03C6FB662760F985E0CD
S11305D00E94EC036C2F661F6627661F86E00E944C
S11305E0EC0361E082E00E94EC038FE99FE0019755
S11305F0F1F700C0000060E082E00E94EC036C2F81
S1130600617083E00E94EC03C1FB662760F984E01B
S11306100E94EC03C2FB662760F985E00E94EC03AC
S1130620C3FB662760F986E00E94EC0361E082E088
S11306300E94EC038FE99FE00197F1F700C00000EE
S113064060E082E00E94EC038FE19EE40197F1F701
S113065000C00000CF9108950F931F93CF938C0196
S1130660C0E003C00E94CE02CF5FF801EC0FF11D81
S113067080818111F7CFCF911F910F910895CF926F
S1130680DF92EF92FF920F931F938B019C016115F0
S113069071058105910521F480E30E94CE024CC0CE
S11306A099234CF58DE20E94CE0246C0DC01CB01B9
S11306B0880F991FAA1FBB1F6C017D01CC0CDD1C88
S11306C0EE1CFF1CCC0CDD1CEE1CFF1CC80ED91E3E
S11306D0EA1EFB1EC901B8012AE030E040E050E008
S11306E00E94F7046C0D7D1D8E1D9F1D022F132F7C
S11306F0242F352F04C061E070E080E090E01016F4
S113070011061206130694F212C02AE030E040E00B
S113071050E00E94F704E22EF32E042F152F80E3FD
S1130720860F0E94CE026E2D7F2D802F912F623076
S11307307105810591054CF71F910F91FF90EF9082
S1130740DF90CF900895CF93DF9300D0CDB7DEB77D
S113075090E8998390EC9A83E1E0F0E0EC0FFD1FC0
S1130760E80FF11D8081860F0E945A020F900F90AE
S1130770DF91CF91089581E00E945A020895CF93AA
S1130780DF9380E40E945A02D0E015C0ED2FF0E020
S1130790EE0FFF1FEE0FFF1FEE0FFF1FE459FF4F79
S11307A0EC0FF11D80810E94CE02CF5F01C0C0E03A
S11307B0C83060F3DF5FD830D0F3DF91CF91089574
S11307C084B3816084BB089585B3816085BB08953B
S11307D085B38E7F85BB0895982F969596959695AB
S11307E08770662309F43FC0613009F07BC0913003
S11307F099F028F09230E9F0933041F108954BB329
S113080021E030E0B90102C0660F771F8A95E2F754
S1130810CB01842B8BBB089548B321E030E0B901B0
S113082002C0660F771F8A95E2F7CB01842B88BB41
S1130830089545B321E030E0B90102C0660F771F87
S11308408A95E2F7CB01842B85BB089542B321E05E
S113085030E0B90102C0660F771F8A95E2F7CB0139
S1130860842B82BB08959130A1F028F09230F9F0E6
S1130870933059F108954BB321E030E0B90102C03F
S1130880660F771F8A95E2F7CB01809584238BBB93
S1130890089548B321E030E0B90102C0660F771F24
S11308A08A95E2F7CB018095842388BB089545B3EC
S11308B021E030E0B90102C0660F771F8A95E2F7A4
S11308C0CB018095842385BB089542B321E030E0B9
S11308D0B90102C0660F771F8A95E2F7CB018095B4
S11308E0842382BB089590E07EC0E92FF0E0EE0FF0
S11308F0FF1FE05AFF4F8081282F269526952695C5
S1130900877031813323B9F1313009F06BC0213064
S113091089F028F02230C9F0233011F163C04AB3C2
S113092021E030E002C0220F331F8A95E2F7242B26
S11309302ABB58C047B321E030E002C0220F331F66
S11309408A95E2F7242B27BB4DC044B321E030E065
S113095002C0220F331F8A95E2F7242B24BB42C026
S113096041B321E030E002C0220F331F8A95E2F741
S1130970242B21BB37C0213091F028F02230D9F04C
S1130980233029F12FC04AB321E030E002C0220F06
S1130990331F8A95E2F7209524232ABB23C047B34B
S11309A021E030E002C0220F331F8A95E2F7209540
S11309B0242327BB17C044B321E030E002C0220F38
S11309C0331F8A95E2F72095242324BB0BC041B33F
S11309D021E030E002C0220F331F8A95E2F7209510
S11309E0242321BB9F5F963008F47FCF0895052E02
S11309F097FB1EF400940E940E0557FD07D00E9439
S1130A00160507FC03D04EF40C940E055095409542
S1130A10309521953F4F4F4F5F4F089590958095A6
S1130A20709561957F4F8F4F9F4F0895A1E21A2EC5
S1130A30AA1BBB1BFD010DC0AA1FBB1FEE1FFF1F7E
S1130A40A217B307E407F50720F0A21BB30BE40BCE
S1130A50F50B661F771F881F991F1A9469F7609515
S1130A607095809590959B01AC01BD01CF010895CF
S1070A70F894FFCF24
S1130A74010102010301040105010601040A110A2A
S1130A84040A111F1F0E0404040404040E1F1F0E81
S1130A94040000000404040404150E040103061CE9
S1130AA41C06030110180C07070C18100000001F83
S1130AB41F00000003060C0C0C0C0603686F720084
S1130AC46D69007365630074696D650020656E6407
S1090AD46564006D6E0074
S90300B844
